:020000040800F2
:10000000F80E00201115000815020008170200085C
:100010001B0200081F020008230200080000000065
:10002000000000000000000000000000270200089F
:1000300029020008000000002B0200082D02000821
:100040002B1500082B1500082B1500082B15000890
:100050002B1500082B150008251200082B15000889
:100060002B150008631200089F120008890700087A
:100070002B1500082B1500082B1500082B15000860
:100080002B1500082B1500082B1500082B15000850
:100090002B1500082B1500082B1500082B15000840
:1000A0002B1500082B1500082B1500082B15000830
:1000B0002B1500082B1500082B1500082B15000820
:1000C0002B1500082B1500082B1500082B15000810
:1000D0002B150008851400082B1500082B150008A7
:1000E0002B1500082B1500082B1500082B150008F0
:1000F0002B1500082B1500082B1500082B150008E0
:100100002B1500082B1500082B1500082B150008CF
:100110002B1500082B1500082B1500082B150008BF
:100120002B1500082B1500082B1500082B150008AF
:1001300000F002F800F03AF80AA090E8000C8244BF
:100140008344AAF10107DA4501D100F02FF8AFF29C
:10015000090EBAE80F0013F0010F18BFFB1A43F0A5
:10016000010318475475000074750000103A24BF4D
:1001700078C878C1FAD8520724BF30C830C144BF0C
:1001800004680C607047000000230024002500264E
:10019000103A28BF78C1FBD8520728BF30C148BFEA
:1001A0000B6070471FB51FBD10B510BD03F0FAFA04
:1001B0001146FFF7F7FF00F009F803F018FB03B44E
:1001C000FFF7F2FF03BC01F003F9000001F096F81D
:1001D0004FF4A06001F0BCF94FF4E13001F006F9F2
:1001E00000F016F900F0C6FF00F00DFF00F030FA45
:1001F00000F0EDF900F09EF90121044802F0F2FD53
:1002000000200349086000BFFEE70000002C014009
:1002100094812142704700BFFEE700BFFEE700BFA8
:10022000FEE700BFFEE77047704770477047000069
:100230000CB50020019000906C48006840F48030BC
:100240006A49086000BF6948006800F40030009007
:100250000198401C0190009818B90198B0F5A06F62
:10026000F1D16248006800F4003010B10120009024
:1002700001E0002000900098012843D15C4800680C
:1002800040F010005A4908600846006820F003005A
:1002900008600846006840F0020008605348406863
:1002A000524948600846406848600846406840F443
:1002B000806048600846406820F47C10486008462A
:1002C000406840F4E81048600846006840F08070DC
:1002D000086000BF4548006800F000700028F9D0B1
:1002E0004248406820F003004049486008464068A2
:1002F00040F00200486000BF3C48406800F00C003D
:100300000828F9D10CBD10B5FFF792FF10BD10B54C
:100310003648006840F001003449086008464068EB
:10032000344908403149486008460068324908406D
:100330002E4908600846006820F4802008600846BE
:10034000406820F4FE0048604FF41F008860FFF70B
:10035000DAFF4FF000602949086010BD10B5002198
:1003600000200022214B5B6803F00C0121B104291D
:1003700006D0082928D107E0214B224C236027E032
:100380001F4B204C236023E0184B5B6803F4701074
:10039000164B5B6803F48032022303EB904022B9D2
:1003A000194B4343174C23600DE0104B5B6803F47B
:1003B000003323B1144B4343124C236003E0104B32
:1003C0004343104C236003E00D4B0E4C236000BFF1
:1003D00000BF064B5B68C3F303130C4CE15C094B95
:1003E0001B68CB40074C236010BD0000001002408A
:1003F000002002400000FFF8FFFFF6FE08ED00E0DD
:1004000000127A000000002000093D0004000020D6
:1004100008B50121482001F04DFE2020ADF8000074
:1004200010208DF8030003208DF80200694609486A
:1004300001F084FB2021074801F02DFC2020ADF8BD
:1004400000006946044801F079FB2021024801F0D0
:1004500022FC08BD000C01400018014008B5012134
:10046000442001F027FE1820ADF8000048208DF848
:10047000030069462C4801F061FB0120ADF8000043
:1004800028208DF803006946284801F057FB08BD75
:1004900010B5044614B1012025490870244800789D
:1004A00058B31021204801F0DCFB50B108211E4850
:1004B00001F0D7FB28B101211C4801F0D2FB012833
:1004C0001BD10A2000F057FF0020194908701021A5
:1004D000154801F0C6FB08B9012010BD08211248DB
:1004E00001F0BFFB08B90220F7E701210F4801F036
:1004F000B8FB012815D10320EFE710210A4801F0CD
:10050000B0FB01280DD10821074801F0AAFB012802
:1005100007D10121054801F0A4FB10B901200449CD
:1005200008700020D9E700000018014000080140D1
:100530001400002000B587B00121480201F0BAFD87
:100540000121102001F0B6FD0220ADF804000020CA
:100550008DF8070001A9D94801F0F0FA00200290B7
:100560008DF80C008DF80D000490059001208DF899
:10057000180002A9D24801F080F84FF4004001F0C1
:10058000FDFC072301220B21CD4801F00EF90121CA
:10059000CB4801F09EF80121C94801F062F9012120
:1005A000C74801F0A1F8C64801F0B5F800BFC4483B
:1005B00001F0B6F80028FAD1C14801F0BBF800BF3D
:1005C000BF4801F0BCF80028FAD107B000BD00B563
:1005D0008DB00121084601F060FD4FF4C06000F0CD
:1005E000B7FF0B208DF8040000208DF805008DF872
:1005F000060001208DF8070001A800F0AEFFB14809
:1006000002F0CEFEAE484C300290AF48039000207E
:100610000490012005900020069080200790400063
:1006200008908000099020200A9000020B90002082
:100630000C9002A9A34802F055FF01220621A1480F
:1006400002F087FF01219F4802F077FF0DB000BD47
:1006500000B589B00121C80201F02CFD0121042060
:1006600001F028FD4FF48070ADF8040003208DF8F0
:10067000060018208DF8070001A9944801F05EFAE1
:1006800006A802F07FFB7C20ADF81C004720ADF8E7
:1006900018000020ADF81E00ADF81A0006A98C481D
:1006A00002F044F86020ADF808000120ADF80A001F
:1006B0001920ADF80E000220ADF8100002A9844800
:1006C00002F071F80121824802F098FB0021804875
:1006D00002F088FB09B000BD2DE9F05F4FF0000B80
:1006E000DA461FE07B4951F82A0004F019FF21F097
:1006F00000470646584604F013FF804632463B4604
:1007000004F054F9044604F01FF98346BAF1130FBC
:1007100006DA70490AF1010051F8200041F82A0078
:100720000AF1010ABAF1140FDCDB584604F0F8FEB6
:1007300006460022684B04F0F5F9044604F004F97B
:100740008346584604F0ECFE04460022634B04F056
:10075000D5FC08D262480078012804D161490870AC
:1007600000205F490870584604F0DAFE0446002273
:100770005A4B04F089FB05D25A480078012801D170
:1007800057490870BDE8F09F2DE9F04700214D481A
:1007900002F0D3FE042002F01EFF022002F01BFF35
:1007A0004948008884B250480088142811DA20464D
:1007B00004F050FF05464D4904F094FF45494A4A6C
:1007C000128841F8220048480088401C46490880A9
:1007D00008E0204604F03EFF0546444904F082FF4D
:1007E0003C49C86440480088142815D1FFF774FFBD
:1007F0003C480078012805D13948007810B901201B
:100800003B49088037480078012805D134480078F2
:10081000012801D1374908803548008801281BD1BB
:1008200035480078C0B9204604F014FF814604F032
:1008300077FE07464FF06632304B04F061FB054609
:1008400004F082F82E492F4A128841F822002D48E0
:100850000088401C2B49088026480088012808D1C0
:10086000002028490880224908802249088022491E
:10087000087024480088CD2807D100F045F80020F2
:100880002049088001201C49087001210D4802F010
:1008900054FEBDE8F08770B504462668012508E0DF
:1008A00054F82500314604F0E9FF01D254F82560E0
:1008B0006D1CCD2DF4DB304670BD000000100140F2
:1008C00000240140080002401600002000080140FA
:1008D000002C01404C000020000034400000D03FBC
:1008E00019000020180000201A0000203333533A6A
:1008F0001E000020200000202200002066664A3FE3
:100900009C0000201C0000202DE9F04FADF5757D06
:1009100074A103C9F491F39040227449E3A802F052
:10092000F8FE20200D9050200C900020169017907B
:10093000002776E0F3A9C85D04F092FA6C4A6D4B8B
:10094000CDE9020104F0DCFA00226B4BCDE9040191
:1009500004F0E8F8CDE9060103F096FA00224FF022
:100960008043CDE9080104F0CBFACDE90A0103F098
:10097000EBFF8246022419E0601E16AA52F82010EE
:10098000504604F0AFFE0B90A01E16AA52F820109D
:100990000B9804F0A5FF8346584850F82410584699
:1009A00004F0EAFD16A941F82400641CCD2CE3DB19
:1009B0005046E29904F096FE0590E19904F092FE0B
:1009C000834604F0ADFDCDE90801E19804F0A8FDEF
:1009D00000224FF08043CDE9000103F0A3FACDE9F6
:1009E0000401E29804F09CFD00224FF08043CDE921
:1009F000000103F097FACDE90201DDE9042303F0D9
:100A0000D5FFCDE90601DDE9082304F09FFC21F0C4
:100A10000041CDE90A0103F097FF0EA941F8270034
:100A20007F1C082F86DB04260CE00C9804F012FED5
:100A300083460EA850F82610584604F01FFE00D238
:100A400002E0761C082EF0DB00BF00250CE00C98BD
:100A500004F000FE83460EA850F82510584604F016
:100A60000DFE00D202E06D1C042DF0DB00BFE3A8F8
:100A700000EB0511301F51F82080214800782149F2
:100A80000968884206D100201D4908701E49087077
:100A900000F0A4F8B8F1090F0BDD08F0FF09012000
:100AA00018234A46122100901748007800F0FAF8FF
:100AB00008E01820012342461221009012480078D5
:100AC00000F07AF9104800780C300F4908700C4893
:100AD0000078401C0A49087000F041F80DF5757D5A
:100AE000BDE8F08F121416181F22262ABC5A0008DF
:100AF0001F85EB51B81E194000A069409C000020E2
:100B000029000020240000202800002010B5FE4B02
:100B100019600023FD4CC4F89831002215E0002331
:100B2000FB4C236000F0800323B10123F84C083410
:100B3000236003E00023F64C083423600123F44CC7
:100B400023604306180E531CDAB2082AE7DB0123A0
:100B5000ED4C0C342360ED4CC4F88C3110BD30B535
:100B600000241CE004F1B001C8B20021FFF7CEFF61
:100B700000210846FFF7CAFF00211020FFF7C6FF3B
:100B8000002508E0E34901EBC501085D0121FFF7FD
:100B9000BDFF681CC5B2802DF4DB601CC4B2082CFC
:100BA000E0DB30BD00B500218D20FFF7AFFF002155
:100BB0001420FFF7ABFF0021AF20FFF7A7FF00BD18
:100BC00000B500218D20FFF7A1FF00211020FFF7C5
:100BD0009DFF0021AE20FFF799FF00BD30B5002436
:100BE0000CE0002506E00020CA4901EBC5010855CC
:100BF000681CC5B2802DF6DB601CC4B2082CF0DB8B
:100C0000FFF7ADFF30BDF0B5144600267F2801DCAC
:100C10003F2900DDF0BD0B46CF1701EB5777FF10E2
:100C2000C7F10707FAB2CF1701EB5777FF10A1EB17
:100C3000C707FDB2C5F107070123BB40DEB24CB1C7
:100C4000B44B03EBC0039B5C3343B24F07EBC007CD
:100C5000BB5408E0AF4B03EBC0039B5CB343AD4F09
:100C600007EBC007BB5400BFD4E72DE9F0470646A9
:100C70000F4690469946DDF820A034460CE03D46EC
:100C800006E0524629462046FFF7BDFF681CC5B264
:100C90004D45F6DD601CC4B24445F0DDFFF75FFF53
:100CA000BDE8F0872DE9F84F80460F4616461C46F2
:100CB000BA462046E31704EB5373DB1021464FEA94
:100CC000E47C04EB5C7C4FEAEC0CA4EBCC0CBCF1B8
:100CD000000F02D04FF0010C01E04FF0000C634414
:100CE000224604EBD27C4FEA6C0C03FB0CF303F0BE
:100CF000FF0BA6F12000C6B200254EE00C2C07D158
:100D000006EB4600844901EB8000405D009013E053
:100D1000102C05D1814800EB0610405D00900BE0DF
:100D2000182C07D106EBC6007D4901EB8000405D21
:100D3000009001E0BDE8F88F4FF0000927E000982F
:100D400000F0800028B1394640460A9AFFF75BFF61
:100D500009E00A9808B9012000E00020024639465F
:100D60004046FFF750FF00984006000E0090781CA8
:100D7000C7B2A7EB0A00A04205D1574608F101000F
:100D800000F0FF0806E009F1010000F0FF09B9F1E9
:100D9000080FD4DB00BF681CC5B25D45AEDB00BFE9
:100DA000C8E710B50246012000E050430B1EA1F138
:100DB0000104E1B2F9D110BD2DE9FF4F81B0074622
:100DC00091461E460E9D4FF0000A002439E0301B6C
:100DD000401EC1B20A20FFF7E4FFB9FBF0F00A2180
:100DE000B0FBF1F201FB1208BAF1000F16D1701E30
:100DF000A04213DDB8F1000F0ED10120AB4605EB88
:100E0000DB71491001FB04710090C8B22B4620220F
:100E10000299FFF747FF12E04FF0010A0120AB46AD
:100E200005EBDB71491001FB04710090C8B208F1B9
:100E30003001CAB22B460299FFF734FF00BF601C95
:100E4000C4B2B442C3DB05B0BDE8F08FF8B50646C6
:100E50000F4615461C4621E004EBD4714910C1F140
:100E60008001B14202DA00263819C7B2C4F140004D
:100E7000B84204DA002006460746FFF7AFFE01201D
:100E800000902A78234639463046FFF70BFF20466C
:100E900004EBD07106EB6101CEB26D1C28787E2880
:100EA00002DC28782028D7DAF8BD2DE9F04F074674
:100EB0000C4690461D46A346002644E008EB480039
:100EC000184901EBC00010F806904FF0000A34E01A
:100ED00009F0800028B12A4621463846FFF793FEE4
:100EE00008E00DB9012000E0002002462146384606
:100EF000FFF789FE4FEA49604FEA1069601CC4B2EF
:100F0000A4EB0B000C280FE08C81224200802242CF
:100F100080012242D0030020FC5A0008705F0008C4
:100F200060650008BC74000803D15C46781CC7B239
:100F300006E00AF1010000F0FF0ABAF1080FC7DB72
:100F400000BF701CC6B2182EB8DBBDE8F08F2DE9CB
:100F5000FC4F07460D4690461C46DDF83090009544
:100F60002046E21704EB5272D2102146E31704EB3D
:100F70005373DB10A4EBC3030BB1012300E0002388
:100F80001A4402FB08F21FFA82FB002637E071497F
:100F90000B9801EB4020805D01904FF0000A28E0A3
:100FA000019800F0800028B14A4629463846FFF7EC
:100FB0002AFE0AE0B9F1000F01D1012000E0002073
:100FC000024629463846FFF71EFE4FF6FF7101988C
:100FD00001EA40000190681CC5B20098281AA0429E
:100FE00003D1009D781CC7B206E00AF101001FFA88
:100FF00080FABAF1080FD3DB00BF701C86B25E45E1
:10100000C5DBBDE8FC8F08B501214FF4987001F0F5
:1010100051F84820ADF8000010208DF8030003209F
:101020008DF8020069464C4800F088FD48214A4886
:1010300000F031FE0520ADF800006946474800F099
:101040007DFD0521454800F026FE4FF40040ADF837
:1010500000006946424800F071FD4FF400414048ED
:1010600000F019FE01203F4908603F49C1F88C019A
:1010700000203E490860642000F07DF901203C49D1
:10108000C1F8BC010021AE20FFF740FD0021D520B2
:10109000FFF73CFD00215020FFF738FD0021A8207C
:1010A000FFF734FD00213F20FFF730FD0021D32062
:1010B000FFF72CFD00210846FFF728FD0021402006
:1010C000FFF724FD00218D20FFF720FD00211420D3
:1010D000FFF71CFD00212020FFF718FD0021022052
:1010E000FFF714FD0021A120FFF710FD0021C02013
:1010F000FFF70CFD0021DA20FFF708FD0021122088
:10110000FFF704FD00218120FFF700FD0021EF2003
:10111000FFF7FCFC0021D920FFF7F8FC0021F120AB
:10112000FFF7F4FC0021DB20FFF7F0FC002130206A
:10113000FFF7ECFC0021A420FFF7E8FC0021A6202B
:10114000FFF7E4FC0021AF20FFF7E0FCFFF746FDCE
:1011500008BD0000BC7200080014014000100140EE
:10116000002001409881224200802242BC0124429A
:10117000000024420EB5FFF771F90121084600F086
:1011800099FF0321042000F0EFFD082001900020CA
:101190008DF808000C208DF8090001A802F038FA3B
:1011A0000421084600F0E0FD1020019001A802F0A3
:1011B0002FFA0021084600F0D7FD012001900820F9
:1011C0008DF8090001A802F023FA06208DF800002E
:1011D00002208DF8010003208DF8020001208DF817
:1011E0000300684600F0B9F909208DF800000220DC
:1011F0008DF8010001208DF802008DF8030068468B
:1012000000F0ABF90A208DF8000002208DF80100F3
:1012100000208DF8020001208DF80300684600F0E0
:101220009CF90EBD10B50A2000F0A5F801212A484E
:1012300000F017FD012810D1002028490860012086
:101240002749C1F894010420264908600020264956
:10125000087026490870FFF7C1FC012002F04FFA20
:1012600010BD10B50A2000F086F80821204800F0D3
:10127000F8FC80B900201F49086001201E49C1F810
:101280009401062017490860002017490870174983
:101290000870FFF7A3FC082002F031FA10BD10B56A
:1012A0000A2000F068F81021114800F0DAFC78B943
:1012B0000020104908601049C1F89401082009492C
:1012C000086000200849087008490870FFF786FC8C
:1012D000102002F014FA10BD000801409481214250
:1012E00000002342240000202900002028000020C4
:1012F00000180140940123420080214210B56FF094
:10130000040000F074F92E4800682E49B0FBF1F09B
:101310002D4908700846007800EB4001C1EBC01071
:101320004FF6FF7101EAC0002849088010BD014650
:10133000254A12784A434FF0E0235A6100229A610D
:101340001A46126942F001021A6100BF4FF0E02212
:10135000106900F001021AB100F48032002AF5D0C1
:101360004FF0E022126922F001024FF0E0231A61EF
:1013700000229A6170470146144A12884A434FF08E
:10138000E0235A6100229A611A46126942F0010272
:101390001A6100BF4FF0E022106900F001021AB19B
:1013A00000F48032002AF5D04FF0E022126922F0DA
:1013B00001024FF0E0231A6100229A617047000099
:1013C0000000002000127A002A0000202C000020DB
:1013D00000BF704700BF4A4A128802F04002002A4C
:1013E000F9D0C2B2464B1B1D1A80704710B586B0AB
:1013F0000446012144F2040000F05CFE4FF400704A
:10140000ADF8140003208DF8160018208DF8170091
:1014100005A93C4800F092FB4FF48060ADF8140041
:1014200004208DF8170005A9364800F087FB252019
:101430008DF8000003208DF801008DF802000120D6
:101440008DF80300684600F088F801940020ADF89C
:101450000800ADF80A00ADF80C00ADF810000C2043
:10146000ADF80E0001A9264800F0CBFE012240F2A3
:101470002551234800F05DFF0121214800F04DFF78
:1014800006B010BD10B540F225511D4801F036F8E8
:1014900010B31B4800F0B2FFC4B21B48008800F430
:1014A0000040C8B91848008800F4804060B10A2C98
:1014B00003D000201449088020E01348008840F43D
:1014C00000401149088019E00D2C06D10E48008813
:1014D00040F480400C49088010E00B480088C0F3BD
:1014E0000D000A490C5408480088401C0649088031
:1014F00008460088C72801DD0020088010BD0000D4
:10150000003801400008014034000020D0070020CE
:101510000948804709480047FEE7FEE7FEE7FEE787
:10152000FEE7FEE7FEE7FEE7FEE7FEE704480549C3
:10153000054A064B704700000F0300083101000800
:10154000F8080020F80E0020F80A0020F80A002011
:1015500031490143314A1160704770B500210023C1
:101560000F22C47804B32D4C246804F4E064C4F55D
:10157000E064210AC1F10403CA40447804FA03F18B
:101580008478144021430901254C0678A15504783C
:1015900004F01F050124AC4005786D11AD0005F184
:1015A000E025C5F8004109E0047804F01F05012496
:1015B000AC401C4D0678761145F8264070BD1A4A9D
:1015C0000A400243154B1B1F1A60704739B1134A7A
:1015D000121D12680243114B1B1D1A6006E00F4AD0
:1015E000121D126882430D4B1B1D1A6070470428A0
:1015F00008D14FF0E021096941F004014FF0E022E9
:10160000116107E04FF0E021096921F004014FF07A
:10161000E0221161704700000000FA050CED00E0C7
:1016200000E400E080E100E080FFFF1F10B5044609
:10163000FA48844208D10121401500F055FD0021EF
:10164000601500F051FD17E0F548844208D10121F2
:10165000001500F049FD0021201500F045FD0BE0CC
:10166000F048844208D10121C80300F03DFD00216B
:101670004FF4004000F038FD10BD30B502460020A8
:1016800000235068E84C20400D790C6844EA05249A
:10169000204350609068E54C2040D1E902542C432F
:1016A0004D7944EA450420439060D06A20F47000EC
:1016B0000C7C641EE4B2234340EA0350D06230BD88
:1016C00000210160017141718160C16001210174DB
:1016D000704721B1826842F00102826003E08268B3
:1016E00022F001028260704721B1826842F4807268
:1016F000826003E0826822F480728260704710B5D5
:101700000023CBB21AB144681C43446002E0446831
:101710009C43446010BD816841F0080181607047BE
:10172000014600208A6802F008020AB1012000E0A8
:1017300000207047816841F00401816070470146D4
:1017400000208A6802F004020AB1012000E00020B3
:10175000704721B1826842F4A002826003E082688F
:1017600022F4A00282607047014600208A6802F4D9
:1017700080020AB1012000E00020704710B50A463F
:1017800000210023416821F46041531E41EA4331A6
:10179000416010BD21B1426842F40062426003E042
:1017A000426822F4006242607047F0B504460D467C
:1017B00000200021092D11DDE068A5F10A0606EBE5
:1017C0004607072606FA07F18843A5F10A0606EB45
:1017D000460603FA06F10843E0600CE0206905EBD9
:1017E0004507072606FA07F1884305EB450603FA85
:1017F00006F108432061072A0FDA606B561E06EBDC
:1018000086071F2606FA07F18843561E06EB860652
:1018100005FA06F10843606322E00D2A0FDA206B17
:10182000D61F06EB86071F2606FA07F18843D61F48
:1018300006EB860605FA06F10843206310E0E06A2D
:10184000A2F10D0606EB86071F2606FA07F188436C
:10185000A2F10D0606EB860605FA06F10843E062E2
:10186000F0BD21B1826842F48012826003E0826898
:1018700022F48012826070470146C86C80B27047C3
:1018800066484C300068704721B1426842F480627B
:10189000426003E0426822F480624260704721B1F6
:1018A000426842F48052426003E0426822F480526F
:1018B000426070470A460021816821F4E0411143EB
:1018C0008160704721B1826842F40042826003E087
:1018D000826822F400428260704721B1826842F43B
:1018E0000212826003E0826822F402128260704772
:1018F000014600208A6802F400120AB1012000E0CB
:1019000000207047F0B5044615460020002200264E
:10191000092911DDE068A1F10A0707EB470C072749
:1019200007FA0CF29043A1F10A0707EB470703FA05
:1019300007F21043E0600CE0206901EB410C07273F
:1019400007FA0CF2904301EB410703FA07F2104348
:101950002061A06BC0F30156EF1C06F1010CA7EB50
:101960000C0707EB870C1F2707FA0CF29043EF1CBC
:1019700006F1010CA7EB0C0707EB870701FA07F24A
:101980001043A063F0BD10B50A4600210023816B0F
:1019900021F44011531E41EA0351816310BD08B583
:1019A000002300930090009B0B440093009B1A605F
:1019B00008BD08B5024600200090009201F1280001
:1019C000009B184400900098006880B208BD0A4649
:1019D00000214168164B1940114341607047416234
:1019E000826270470A460021416821F01F011143BD
:1019F0004160704740B109490831096841F400016C
:101A0000064A0832116007E004490831096821F4E8
:101A10000001024A083211607047000000240140B2
:101A200000280140003C0140FFFEF0FFFDF7F1FF00
:101A3000FFFD3FFF0246002013680B400BB1012061
:101A400000E000207047CA430260704770B502464C
:101A50000020002300240B125568CEB205EA0604CC
:101A600015681D4015B10CB1012000E0002070BDCB
:101A700000220A12D34303607047000010B50446E9
:101A8000CC48844208D10121042000F02DFB002124
:101A9000042000F029FB46E0C748844208D1012118
:101AA000082000F021FB0021082000F01DFB3AE097
:101AB000C248844208D10121102000F015FB00210A
:101AC000102000F011FB2EE0BD48844208D1012116
:101AD000202000F009FB0021202000F005FB22E07F
:101AE000B848844208D10121402000F0FDFA0021CD
:101AF000402000F0F9FA16E0B348844208D10121F1
:101B0000802000F0F1FA0021802000F0EDFA0AE0D8
:101B1000AE48844207D10121801500F0E5FA00218A
:101B2000A01500F0E1FA10BD10B50121084600F043
:101B3000DBFA0021012000F0D7FA10BD2DE9F041B9
:101B4000024600250026002000230024002791F8EB
:101B500003C00CF00F0591F803C00CF0100CBCF1A1
:101B6000000F03D091F802C04CEA050591F800C0BF
:101B7000BCF1000F31D0146800202BE04FF0010CB5
:101B80000CFA00F3B1F800C00CEA03069E4220D123
:101B900083004FF00F0C0CFA03F7BC4305FA03FC6B
:101BA0004CEA040491F803C0BCF1280F06D14FF0B1
:101BB000010C0CFA00FCC2F814C00AE091F803C052
:101BC000BCF1480F05D14FF0010C0CFA00FCC2F833
:101BD00010C0401C0828D1D31460B1F800C0BCF17B
:101BE000FF0F34DD546800202EE000F1080C4FF0A8
:101BF000010808FA0CF3B1F800C00CEA03069E4293
:101C000021D183004FF00F0C0CFA03F7BC4305FA07
:101C100003FC4CEA040491F803C0BCF1280F05D181
:101C200000F1080C08FA0CF8C2F8148091F803C00F
:101C3000BCF1480F07D100F1080C4FF0010808FA79
:101C40000CF8C2F81080401C0828CED35460BDE8C0
:101C5000F0814FF6FF710180022181700421C17073
:101C600070470246002093680B400BB1012000E052
:101C7000002070470146886880B270470246002005
:101C8000D3680B400BB1012000E0002070470146F3
:101C9000C86880B2704701617047416170470AB1FE
:101CA000016100E041617047C16070474FF48032CC
:101CB0000A4382618161826182698269704702465A
:101CC0000020434B18684FF68073184040EA02101A
:101CD00008433F4B186070473E49C8617047F0B5F4
:101CE0000A46002300240021002500F00046B6F13A
:101CF000004F02D1364EF16901E0354E7168C0F3F4
:101D0000034583B200F44016B6F5401F08D121F018
:101D100070612F4E766826F070662D4F7E6012E05F
:101D200000F48016B6F5801F06D1032606FA05F4E6
:101D3000A14341F0706106E0460D360103FA06F654
:101D4000B14341F0706122B1460D360103FA06F647
:101D5000314300F00046B6F1004F02D11C4EF16154
:101D600001E01B4E7160F0BD30B500228B071C0FE7
:101D70000F2303FA04F2164B08338C1053F8243067
:101D80009343134C08348D1044F8253023468C10AF
:101D900053F824308C07240F00FA04F423430C4C2E
:101DA00008348D1044F8253030BD0A49DC31086014
:101DB0007047000000080140000C01400010014085
:101DC0000014014000180140001C014000200140A7
:101DD0000000014000002042DF48006840F00100A0
:101DE000DD49086008464068DC490840DA49486037
:101DF00008460068DA490840D74908600846006884
:101E000020F4802008600846406820F4FE00486006
:101E10004FF41F0088607047CF49096821F4803172
:101E2000CD4A11601146096821F480211160B0F596
:101E3000803F03D0B0F5802F0ED106E0C649096877
:101E400041F48031C44A116007E0C349096841F494
:101E5000A021C14A116000E000BF00BF704710B56B
:101E600001460022002300204A11012A02D1BA4C67
:101E7000236806E0022A02D1B74C236A01E0B64C7F
:101E8000636A01F01F02012494401C400CB1012040
:101E900000E0002010BD38B500200090002400258F
:101EA00000BF3120FFF7DBFF05460098401C009083
:101EB0000098B0F5A06F01D0002DF2D03120FFF7CF
:101EC000CEFF08B1012400E00024204638BD0146C1
:101ED0000020A14A106820F0F80040EAC10010601C
:101EE0007047A04908607047024600209A4B586826
:101EF00020F47C1042EA01031843974B5860704766
:101F000098490866704701460020934A506820F0BF
:101F100003000843506070478F48406800F00C0091
:101F20007047014600208C4A506820F0F0000843BA
:101F30005060704701460020874A506820F4E060F6
:101F400008435060704701460020834A506820F4DF
:101F5000605040EAC1005060704729B17E4A527A11
:101F600002437D4B5A7204E07B4A527A82437A4B99
:101F70005A7270477B49D83108607047014600208B
:101F8000754A506820F44040084350607047002173
:101F9000714A20321170704A82F82010012802D054
:101FA00004280AD104E001216B4A2032117005E0B7
:101FB0000521694A2032117000E000BF00BF704760
:101FC0006949086070476449096A0143624A1162BD
:101FD0007047654944390860704730B500210022D8
:101FE000002400235C4D6D6805F00C0121B104292B
:101FF00005D0082923D105E05C4D056022E05B4D4A
:1020000005601FE0544D6D6805F47012524D6D6807
:1020100005F48034022505EB92421CB9544D55431A
:1020200005600BE04C4D6D6805F400351DB1504D59
:102030005543056002E04D4D5543056002E04B4DB0
:10204000056000BF00BF444D6D6805F0F00109094F
:10205000484D6B5C0568DD4045603F4D6D6805F49B
:10206000E061090A434D6B5C4568DD4085603A4D8F
:102070006D6805F46051C90A3E4D6B5C4568DD40F2
:10208000C560354D6D6805F44041890B3A4D6B5C78
:10209000C568B5FBF3F5056130BD29B12E4A52691B
:1020A00002432D4B5A6104E02B4A526982432A4B6A
:1020B0005A61704729B1284A92690243264B9A61B6
:1020C00004E0254A92698243234B9A61704729B103
:1020D000214AD2690243204BDA6104E01E4AD269E8
:1020E00082431D4BDA61704729B11B4AD268024313
:1020F000194BDA6004E0184AD2688243164BDA6062
:10210000704729B1144A12690243134B1A6104E063
:10211000114A12698243104B1A61704712494039C3
:10212000086070470F49C86470470B49C871704711
:102130000948406A40F0807007494862704701468C
:102140000020054A92680A400AB1012000E0002000
:102150007047014988727047001002400000FFF884
:10216000FFFFF6FE000042428004424200127A0065
:1021700000093D00360000204600002010B504464E
:10218000FB48844209D101218803FFF7ADFF0021FC
:102190004FF48040FFF7A8FF32E0F648844209D1AF
:1021A00001214804FFF7ADFF00214FF40030FFF795
:1021B000A8FF25E0F048844209D101218804FFF7F7
:1021C000A0FF00214FF48020FFF79BFF18E0EB48B1
:1021D000844209D10121C804FFF793FF00214FF485
:1021E0000020FFF78EFF0BE0E548844208D1012173
:1021F0000805FFF786FF00214FF48010FFF781FFED
:1022000010BD2DE9F04786B005460E460024A246D3
:1022100000BFA1460027B08900B100BF2F462C8A1D
:102220004CF6FF700440F08804432C82AC894EF6D3
:10223000F3100440B088318908437189084304438E
:10224000AC81AC8A4FF6FF400440B0890443AC82B5
:1022500001A8FFF7C2FEC648874202D1DDF810A0F0
:1022600001E0DDF80CA0A88900F4004040B10AEBC1
:10227000CA0000EB0A1031684900B0FBF1F807E032
:102280000AEBCA0000EB0A1031688900B0FBF1F8D4
:102290006420B8FBF0F004012009642101FB1089DF
:1022A000A88900F4004040B1322000EBC900B0FB27
:1022B000F1F000F00700044308E0322000EB0910C1
:1022C0006421B0FBF1F000F00F0004432C8106B054
:1022D000BDE8F0874FF41651016000218180C18074
:1022E00001810C21418100218181704710B5024696
:1022F0000020108A4FF2FF0318400B884C882343BC
:102300008C882343CC8823431843108210BD0021BE
:10231000018041808180C180704721B1828942F46F
:102320000052828104E082894DF6FF731A40828157
:102330007047F0B50346002400260025002040F633
:102340006A17B94200D100BF1846C1F3421401F028
:102350001F06012707FA06F5012C01D10C3004E015
:10236000022C01D1103000E014301AB107682F435D
:10237000076002E00768AF430760F0BD1AB1838AC7
:102380000B43838202E0838A8B4383827047028AF5
:102390004FF6F0731A400282028A0A4302827047A3
:1023A00082894FF2FF731A40828182890A438281B7
:1023B000704721B1828942F00202828104E0828961
:1023C0004FF6FD731A4082817047028A4FF6DF7321
:1023D0001A400282028A0A430282704721B1028AAD
:1023E00042F48042028204E0028A4BF6FF731A40F4
:1023F00002827047C1F308028280704701468888D4
:10240000C0F308007047818941F001018181704764
:10241000028BD2B20283028B42EA0122028370470E
:10242000028B02F47F420283028B0A4302837047CD
:1024300021B1828A42F02002828204E0828A4FF631
:10244000DF731A408282704721B1828A42F0100203
:10245000828204E0828A4FF6EF731A4082827047CC
:1024600021B1828A42F00802828204E0828A4FF619
:10247000F7731A408282704721B1828942F4004288
:10248000828103E08289C2F30E028281704721B10A
:10249000828A42F40062828204E0828A4FF2FF73F1
:1024A0001A4082827047828A4FF6FB731A408282FA
:1024B000828A0A438282704721B1828A42F00202F4
:1024C000828204E0828A4FF6FD731A40828270474E
:1024D00002460020B1F5007F00D100BF13880B40F9
:1024E0000BB1012000E00020704701F40072B2F54A
:1024F000007F00D100BFCA430280704770B502461A
:10250000002400230025002040F66A16B14200D1C5
:1025100000BFC1F3421501F01F03012606FA03F3C1
:10252000012D02D19689334006E0022D02D1168A90
:10253000334001E0968A33400C12012606FA04F477
:102540001688344013B10CB1012000E0002070BDAA
:1025500010B50022002340F66A14A14200D100BF4A
:102560000A1201249440A3B2DC43048010BD000091
:10257000003801400044004000480040004C00404A
:102580000050004010B50446FE48844208D10121A5
:10259000C014FFF7A9FD0021E014FFF7A5FDC4E07A
:1025A000B4F1804F08D101210846FFF7AAFD0021B0
:1025B0000120FFF7A6FDB8E0F348844208D10121CD
:1025C0000220FFF79EFD00210220FFF79AFDACE0FC
:1025D000EE48844208D101210420FFF792FD00213A
:1025E0000420FFF78EFDA0E0E948844208D10121D4
:1025F0000820FFF786FD00210820FFF782FD94E008
:10260000E448844208D101211020FFF77AFD00211F
:102610001020FFF776FD88E0DF48844208D10121D1
:102620002020FFF76EFD00212020FFF76AFD7CE0EF
:10263000DA48844208D101214014FFF755FD0021FA
:102640006014FFF751FD70E0D548844209D10121A3
:10265000C804FFF749FD00214FF40020FFF744FDB7
:1026600063E0D048844209D101210805FFF73CFD11
:1026700000214FF48010FFF737FD56E0CA4884422E
:1026800009D101214805FFF72FFD00214FF400106B
:10269000FFF72AFD49E0C548844208D101214020C6
:1026A000FFF72FFD00214020FFF72BFD3DE0C04844
:1026B000844208D101218020FFF723FD00218020E2
:1026C000FFF71FFD31E0BB48844208D1012180158E
:1026D000FFF717FD0021A015FFF713FD25E0B64811
:1026E000844209D101210804FFF7FEFC00214FF4C8
:1026F0008030FFF7F9FC18E0B048844209D101218D
:102700004804FFF7F1FC00214FF40030FFF7ECFC28
:102710000BE0AB48844208D101218804FFF7E4FCB8
:1027200000214FF48020FFF7DFFC10BD002202885B
:10273000944B98420ED0994B98420BD0B0F1804FF9
:1027400008D0914B984205D0904B984202D0904BC4
:10275000984204D14FF68F731A404B881A438D4B21
:10276000984207D08C4B984204D04FF6FF431A4052
:10277000CB881A4302808B8883850B880385814B25
:1027800098420BD0854B984208D08B4B984205D08D
:102790008A4B984202D08A4B984201D10B7A038629
:1027A00001238382704770B5002400220023058C2A
:1027B0004FF6FE7635400584028C8388048B4FF6F5
:1027C0008F752C40B51E2C400D882C43751E2A4059
:1027D0000D892A434D882A436A4DA8420BD06F4D7C
:1027E000A84208D0744DA84205D0744DA84202D02A
:1027F000734DA84213D14FF6F7752A404D892A43ED
:102800004FF6FB752A408D882A434FF6FF652B4013
:102810004FF6FF552B408D892B43CD892B43838069
:102820000483CD888586028470BD70B500240022A3
:102830000023058C4FF6EF7635400584028C8388A3
:10284000048B48F6FF752C404FF6FF452C400D8851
:102850004FF6FF7606EA05252C434FF6DF752A4032
:102860000D8906EA05152A434D8806EA05152A430F
:10287000444DA84202D0494DA8421DD14FF67F7564
:102880002A404D894FF6FF7606EA05152A434FF692
:10289000BF752A408D8806EA05152A434FF6FF3595
:1028A0002B404FF2FF752B408D8906EA85052B439F
:1028B000CD8906EA85052B4383800483CD8805876F
:1028C000028470BD70B5002400220023058C4FF6F1
:1028D000FF6635400584028C8388848B4FF68F75A4
:1028E0002C404FF6FC752C400D882C434FF6FF55BD
:1028F0002A400D894FF6FF7606EA05252A434D88C2
:1029000006EA05252A431F4DA84202D0234DA842BE
:102910001DD14FF2FF752A404D894FF6FF7606EA2A
:1029200005252A434FF6FF352A408D8806EA0525FE
:102930002A434EF6FF752B404DF6FF752B408D89CF
:1029400006EA05152B43CD8906EA05152B4383803E
:102950008483CD888587028470BD70B500220023F2
:102960000024058C4EF6FF7635400584038C848860
:10297000828B48F6FF752A404FF6FF452A400D88A6
:1029800020E00000002C014000040040000800404E
:10299000000C0040001000400014004000340140D2
:1029A000004C01400050014000540140001800401C
:1029B000001C004000200040004001400044014055
:1029C000004801404FF6FF7606EA05252A434DF6FA
:1029D000FF752B400D8906EA05352B434D8806EA25
:1029E00005352B43FA4DA84202D0FA4DA84208D132
:1029F0004BF6FF752C408D894FF6FF7606EA85155C
:102A00002C4384808283CD88A0F84050038470BD1D
:102A1000828B4FF2FF331A408283828B4FF6FF7313
:102A200003EA01231A4382837047F0B50C4615462A
:102A3000002200210026078C4EF6FF7C07EA0C07D7
:102A40000784828B018C4FF6FF7707EA043640F645
:102A5000FF473A404FF6FF7707EA05273A434FF61C
:102A6000FF7707EA03373A43D94FB8420ED0D94F20
:102A7000B8420BD0B0F1804F08D0D74FB84205D044
:102A8000D64FB84202D0D64FB84206D14DF6FF77A6
:102A9000394046F48057394305E047F6FF5739403F
:102AA00044F48057394382830184F0BD828B4FF612
:102AB000F3731A408283828B0A4382837047F0B596
:102AC0000C461546002200210026078C4FF6FF6CAD
:102AD00007EA0C070784828B018C4FF6FF7707EA21
:102AE00004264FF60C773A404FF6FF7707EA0317B4
:102AF0002F433A43B64FB8420ED0B64FB8420BD030
:102B0000B0F1804F08D0B44FB84205D0B34FB842AF
:102B100002D0B34FB84206D14FF6FF57394046F4C2
:102B20008077394305E04FF2FF57394044F480770E
:102B3000394382830184F0BD028B4FF2FF331A4088
:102B40000283028B4FF6FF7303EA01231A430283C9
:102B50007047F0B50C461546002200210026078C70
:102B60004FF6EF7C07EA0C070784028B018C4FF6C7
:102B7000FF7707EA041640F6FF473A404FF6FF7723
:102B800007EA03373A434FF6FF7707EA05273A4348
:102B90008F4FB8420ED08F4FB8420BD0B0F1804F5C
:102BA00008D08D4FB84205D08C4FB84202D08C4F20
:102BB000B84206D14FF6DF77394046F01007394367
:102BC00005E04FF65F77394044F010073943028340
:102BD0000184F0BD028B4FF6F3731A400283028B1F
:102BE0000A4302837047F0B50C46154600220021C7
:102BF000068C4FF6FE773E400684028B018C4FF622
:102C00000C7632407E1C06EA03162E433243704E89
:102C1000B0420ED06F4EB0420BD0B0F1804F08D012
:102C20006D4EB04205D06D4EB04202D06C4EB042F7
:102C300006D14FF6FD76314044F00106314305E000
:102C40004FF6F576314044F00106314302830184AA
:102C5000F0BD70B505460C465D4885420ED05D4816
:102C600085420BD0B5F1804F08D05B48854205D036
:102C70005A48854202D05A48854200D100E000BF40
:102C8000208850B92389A28861882846FFF7ABFFC6
:102C9000E1882846FFF79EFF25E0208804280AD116
:102CA0002389A28861882846FFF753FFE1882846D8
:102CB000FFF742FF17E0208808280AD12389A2885D
:102CC00061882846FFF7FBFEE1882846FFF7EEFE05
:102CD00009E02389A28861882846FFF7A6FEE188DB
:102CE0002846FFF795FE70BD2DE9F04105460C46DC
:102CF00000260127608808B9022600E00026A08887
:102D0000012801D1022700E001272088A0B92389EA
:102D1000A28861882846FFF766FFE1882846FFF70A
:102D200059FF23893A4631462846FFF712FFE188CA
:102D30002846FFF701FF13E02389A288618828460F
:102D4000FFF707FFE1882846FFF7F6FE23893A469A
:102D500031462846FFF747FFE1882846FFF73AFF4C
:102D6000BDE8F0810A884B881A438B881A43CB88C8
:102D70001A430B891A434B891A438B891A43A0F8CB
:102D8000442070474FF6FF71818000210180C1808F
:102D90004180017270470021018041808180C180A3
:102DA000018141818181C181704700210180418081
:102DB000012181800021C1800181704700210180B3
:102DC00041808180C1800181418181817047000003
:102DD000002C014000340140000400400008004085
:102DE000000C004021B1028842F00102028004E0A0
:102DF00002884FF6FE731A400280704731B1B0F876
:102E0000442042F40042A0F8442005E0B0F84420F9
:102E1000C2F30E02A0F8442070471AB183890B4315
:102E2000838102E083898B4383817047818270476D
:102E300041EA0203A0F8483070471AB183890B4376
:102E4000838102E083898B438381704701894FF638
:102E5000F8721140018170470A46002101894FF63E
:102E60008F73194011430181704730B504460D46F8
:102E700029462046FFF7F0FF208940F00700208117
:102E800030BD2DE9F04104460D4616461F46602D23
:102E900006D13B46012231462046FFF75AFE05E0A7
:102EA0003B46012231462046FFF79DFE294620463B
:102EB000FFF7D2FF208940F007002081BDE8F081B4
:102EC00030B50C4600210189C9B24FF6FF7505EAFD
:102ED0000325154325432943018130BD2DE9F041E8
:102EE00005460E4617469846002443463A46314664
:102EF0002846FFF7E5FF2C894FF6F870044044F0B0
:102F000007044FF68F70044044F070042C81BDE834
:102F1000F081F0B504460D4616461F463B46324644
:102F200029462046FFF7CCFF208940F480402081CD
:102F3000F0BD0185828270470A46002101884FF664
:102F40008F731940114301807047F0B50C46154648
:102F50001E460021002200230189028B038C4FF6BC
:102F6000F877394021434FF6FC473A4040F20117C9
:102F70003A434FF6DD773B404FF6FF7707EA0617F7
:102F80002F433B43018102830384F0BD0A460021A5
:102F9000018B4FF68F7319401143018370470A4626
:102FA0000021018B48F6FF7319404FF6FF7303EAC7
:102FB00002231943018370470A460021818B4FF693
:102FC0008F7319401143818370470A460021818B1A
:102FD00048F6FF7319404FF6FF7303EA02231943C3
:102FE0008183704721B1028842F08002028004E0B0
:102FF00002884FF67F731A400280704721B18288A1
:1030000042F00402828004E082884FF6FB731A408B
:103010008280704721B1828842F00802828004E0F9
:1030200082884FF6F7731A408280704721B18288F8
:1030300042F00102828004E082884FF6FE731A405B
:10304000828070470A460021018B4FF6F7731940C2
:103050001143018370470A460021018B4FF2FF7331
:1030600019404FF6FF7303EA0223194301837047A7
:103070000A460021818B4FF6F77319401143818373
:1030800070470A460021818B4FF2FF7319404FF6BB
:10309000FF7303EA02231943818370470A46002124
:1030A000018B4FF6FB7319401143018370470A46A9
:1030B0000021018B4FF6FF3319404FF6FF7303EAEF
:1030C00002231943018370470A460021818B4FF682
:1030D000FB7319401143818370470A460021818B9D
:1030E0004FF6FF3319404FF6FF7303EA02231943EB
:1030F000818370470A460021018B4FF67F73194088
:103100001143018370470A460021018BC1F30E0170
:103110004FF6FF7303EA02231943018370470A46FF
:103120000021818B4FF67F731940114381837047D3
:103130000A460021818BC1F30E014FF6FF7303EAAB
:1031400002231943818370470A460021018C4FF600
:10315000FD7319401143018470470A460021018C18
:103160004FF6F77319401143018470470A46002156
:10317000018C4FF6DF7319404FF6FF7303EA021319
:103180001943018470470A460021018C4FF67F7372
:1031900019404FF6FF7303EA021319430184704785
:1031A0000A460021018C4FF6FF5319404FF6FF737A
:1031B00003EA02231943018470470A460021018C67
:1031C0004FF2FF7319404FF6FF7303EA02231943CE
:1031D000018470470A460021018C4DF6FF731940A7
:1031E0004FF6FF7303EA023319430184704730B589
:1031F000002301248C40A3B2048C9C430484048CDF
:1032000002FA01F5ADB22C43048430BD30B5002381
:1032100004248C40A3B2048C9C430484048C02FAE2
:1032200001F5ADB22C43048430BD70B503460020D7
:1032300000241846183001258D40ACB21D8CA543E2
:103240001D8409B1082909D100EB6100056825F04A
:10325000700505600568154305600EE00D1FC5F398
:103260004E052844056825F4E045056005684FF6DD
:10327000FF7606EA02263543056070BD21B102885B
:1032800042F00202028004E002884FF6FD731A4009
:103290000280704721B1028842F00402028004E0FB
:1032A00002884FF6FB731A400280704721B1828872
:1032B00042F08002828004E082884FF67F731A40D9
:1032C0008280704702884FF6F7731A4002800288A6
:1032D0000A430280704782884FF68F731A408280BB
:1032E00082880A438280704702894FF6F8731A4039
:1032F000028102890A430281704702894FF67F7377
:103300001A40028102890A43028170478184704712
:103310008185704781867047018770478187704734
:10332000A0F84010704702884FF6FF431A40028011
:1033300002880A43028070470146888E7047014622
:10334000088F70470146888F70470146B1F84000EA
:1033500070470146888C70470146088D70470246C9
:103360000020138A0B400BB1012000E000207047C1
:10337000CA430282704730B5024600200023002471
:10338000158A05EA0103958905EA010413B10CB118
:10339000012000E0002030BDCA43028270470000D7
:1033A00001684FF6FE72114001600021016041602A
:1033B0008160C1608D49884208D18C4908394968CB
:1033C00041F00F01894A083A51608AE08749143177
:1033D000884208D185490839496841F0F001834A9B
:1033E000083A51607DE081492831884208D17F49FF
:1033F0000839496841F470617C4A083A516070E0CC
:103400007A493C31884208D178490839496841F401
:103410007041764A083A516063E0744950318842FD
:1034200008D172490839496841F470216F4A083A55
:10343000516056E06D496431884208D16B490839C2
:10344000496841F47001694A083A516049E06749A6
:103450007831884208D165490839496841F070617E
:10346000624A083A51603CE06149884206D1011F36
:10347000096841F00F01021F116032E05C4914310C
:10348000884208D15A49091F096841F0F001584A99
:10349000121F116025E056492831884208D154494D
:1034A000091F096841F47061514A121F116018E048
:1034B0004F493C31884208D14D49091F096841F400
:1034C00070414B4A121F11600BE04949503188424C
:1034D00007D14749091F096841F47021444A121F66
:1034E0001160704710B50022026847F6F0739A43E6
:1034F0000C6A8B6823430C6923434C6923438C6912
:103500002343CC6923434C6A23438C6A23431A43E5
:103510000260CB6843600B6883604B68C36010BD7A
:103520000021016041608160C16001614161816190
:10353000C161016241628162704721B1026842F05B
:103540000102026004E002684FF6FE731A40026056
:1035500070471AB103680B43036002E003688B43B2
:1035600003607047416070470146486880B2704709
:1035700001460020002201F080531BB11C4B083B88
:103580001A6802E0194B083B1A6802EA01030BB102
:10359000012000E00020704700F0805119B114496B
:1035A000091F086002E01149083948607047014668
:1035B0000020002201F080531BB10D4B083B1A681C
:1035C00002E00A4B083B1A6802EA01030BB1012032
:1035D00000E00020704700F0805119B10449091F34
:1035E000086002E00149083948607047080002405D
:1035F00008040240002044490860091D0860091DB4
:103600000860091D086041483F491431086070474F
:1036100000213D498279002A3AD00A46126803689F
:103620009A430B461A600A1D126803689A430B1DE1
:103630001A60027911440A6803681A430A60324A20
:103640000832126803689A432F4B08331A601A1D18
:10365000126803689A432C4B0C331A604279102A83
:103660000ED11A1F126803681A43274B08331A60D9
:103670001A1D126803681A43234B0C331A600DE0BD
:103680002149427911440A6803681A430A6005E037
:10369000027911440A6803689A430A60704700215E
:1036A000016001710C21417100218171704716493F
:1036B000103109680143144A103211607047014605
:1036C0000020114A143212680A400AB1012000E0B9
:1036D000002070470C4914310860704701460020F3
:1036E0000022094B1B6803EA0102074B14331B68D5
:1036F0000B4013B10AB1012000E0002070470249DD
:10370000143108607047000000040140FFFF0F0003
:10371000704710B5203AC0F00B80B1E81850203A3D
:10372000A0E81850B1E81850A0E81850BFF4F5AF61
:103730005FEA027C24BFB1E81850A0E8185044BFEB
:1037400018C918C0BDE810405FEA827C24BF51F858
:10375000043B40F8043B08BF7047D20728BF31F84C
:10376000023B48BF11F8012B28BF20F8023B48BF9D
:1037700000F8012B7047704770477047704710B5CD
:1037800000F008F8006810BD10B5044600F002F81B
:10379000046010BD0048704798080020004870473A
:1037A000980800207546FFF7F9FFAE460500694608
:1037B000534620F00700854618B020B5FDF7B6FE49
:1037C000BDE820404FF000064FF000074FF0000822
:1037D0004FF0000B21F00701AC46ACE8C009ACE8A3
:1037E000C009ACE8C009ACE8C0098D46704710B507
:1037F0000446AFF300802046BDE81040FCF7DFBC74
:10380000490050EAC12018BF04204A0D18BF40F0FB
:10381000010040F2FF72B2EB515F08BF40F00200BE
:10382000012808BF052070472DE9F74F144694B0D2
:103830000021C4E902111599079121F00045C949F9
:103840008D4206DC1599C4E9000117B00020BDE8DF
:10385000F08FC549DFF814A3A9423CDD0799C44E97
:103860000029C44FC44A1599534619DD01F06EFD75
:10387000554506D0C14AC24B01F068FDC4E90001BC
:103880000AE04FF0D352BE4B01F060FD32463B469A
:1038900001F05CFDC4E9000117B00120BDE8F08F24
:1038A00001F084F8554506D0B44AB54B01F07EF8D6
:1038B000C4E900010AE04FF0D352B14B01F076F8B1
:1038C00032463B4601F072F8C4E9000117B04FF0F0
:1038D000FF30BDE8F08FAB49A942159978DB21F0A4
:1038E000004183468846A84AA84B01F009FB002204
:1038F000A74B01F05BF801F06DFA099001F099FA1D
:1039000006460F469C4A534601F0FAFA43465A4689
:1039100001F02AFC80468A46984A994B304639463F
:1039200001F0EEFA2A0D01250B924246534601F0B2
:103930001BFC032DC4E9000139D00B98C1F30A51D7
:10394000401A05EB45111139814230DA9148C346DE
:10395000784400EB0510CDF80CA00C90D0E90023C2
:103960003046394601F0CCFA02460B4604910690E7
:103970005846039901F0EAFC80468A4602460B4607
:103980005846039901F0E2FC049B069A01F0DEFC24
:1039900083460C9803913946D0E90223304601F062
:1039A000AFFA5A46039B01F0D1FC6D1CBDE70798A6
:1039B0000028A2BF099817B0BDE8F08F616881F0B8
:1039C00000416160099817B04042BDE8F08FFFE701
:1039D00084461598C1F31301C0F30A50A0F2F530E4
:1039E0004FEA601800F01F06C6F120001390002077
:1039F0000690079041F4801E05206D4676B1664A18
:103A000008EB00017A4452F8213002EB8101B34007
:103A10004A68139922FA01F1194305E05F4908EB5E
:103A20000002794451F82210A1FB0E27A1FB0C13D0
:103A30001A449A4234BF0123002303EB070A05EB23
:103A40008003D3E901B70F448F4234BF0121002125
:103A500093448B4411B1934502D903E0934501D2BD
:103A6000012100E00021C3E901B7514445F82010CD
:103A7000011EA0F10100C1DC0298059F00F1005079
:103A8000800F12900298DDE90356800001F0D1F911
:103A9000834628460D9101F0E3F96FF01D0201F015
:103AA000C6FFCDE90E01304601F0DAF96FF03D02B4
:103AB00001F0BDFF80468A46384601F0D1F96FF02B
:103AC0005D0201F0B4FF074642465346119100F0F3
:103AD0006DFFDDE90E2300F069FF5A460D9B00F0F3
:103AE00065FF00250E465A4628460D9B01F02EFC28
:103AF000DDE90E2301F02AFC4246534601F026FC84
:103B00003A46119B01F030FBDFF898A0244A534657
:103B100001F0F6F907468846234A244B31462846E9
:103B200001F0EEF93A46434600F040FF074688466A
:103B30004FF0A84253463146284601F0E1F93A4693
:103B4000434600F033FF159A12F0004F04D0129A4A
:103B500081F0004152421292C4E90001129817B05C
:103B6000BDE8F08FFB21E93F7CD90240FB21F93F02
:103B70007370032E8A19A33B000040543163621A0C
:103B800061B4D03DFB21394183C8C96D305FE43F4A
:103B90000000E03F743C0000F03B0000D23B00001E
:103BA000182D4454FB21F93D3326A611460B113C38
:103BB0002DE9FF4D21F0004807460C46B8F1795F2A
:103BC00008DA01F007F9002801BF0020324904B0EB
:103BD000BDE8F08D3A4623461046194601F090F9AB
:103BE000054602462D480E460B460621784400F055
:103BF0005DF82A46334601F083F9DDE90223824667
:103C00008B463846214601F07BF904460F46524662
:103C10005B462846314601F073F922463B4601F0E7
:103C200095FB07468A464FF0FF322846314601F0A1
:103C3000FEFE1B4A90450ADA3A46534601F086FBDF
:103C400004B00022BDE8F04D134B01F08DBA154AC7
:103C50004245A8BFA8F500154FF00004B8BF124DAB
:103C600022462B4601F072FB0646884622462B462A
:103C70000020094901F06AFB04460D463A465346C6
:103C80003046414601F062FB04B022462B46BDE8B7
:103C9000F04D01F069BA00000000F03FA0390000CB
:103CA0003333D33F0000E93F0000D23F2DE9F0411C
:103CB0004F1E00EBC7010446D1E9000115461E4620
:103CC00037F006020DD02A46334601F019F97F1E5F
:103CD00004EBC703D3E9002300F068FE37F00602C7
:103CE000F1D1022F25D0042F13D0062F18BFBDE825
:103CF000F0812A46334601F003F9D4E90A2300F0A3
:103D000055FE2A46334601F0FBF8D4E9082300F0BB
:103D10004DFE2A46334601F0F3F8D4E9062300F0BD
:103D200045FE2A46334601F0EBF8D4E9042300F0BF
:103D30003DFE2A46334601F0E3F8D4E9022300F0C1
:103D400035FE2A46334601F0DBF8D4E90023BDE80E
:103D5000F04100F02BBE00002DE9FF4D054621F09B
:103D6000004084B00C46B0F1795F0BDA2846FFF7CB
:103D700047FD042808BF00F07FF8284608B0214618
:103D8000BDE8F08D2A460B46104601F0B9F806460C
:103D90000F462A46234601F0B3F8804626488A4655
:103DA00032463B4605217844FFF780FF8346109852
:103DB000029160B3214A224B4046514601F0A0F8DF
:103DC000CDE900015A4640465146029B01F098F861
:103DD00082468846DDE906014FF0FF3201F027FEFA
:103DE0005246434601F0B2FA32463B4601F088F8AB
:103DF000DDE9062301F0AAFADDE9002301F0A6FAC5
:103E000008B02A462346BDE8F04D01F0ADB90B4697
:103E10005A463046394601F073F8084A084B00F01C
:103E2000C5FD4246534601F06BF808B02A462346CA
:103E3000BDE8F04D00F0BABDE638000049555555D3
:103E40005555C5BF002213461046014900F06ABE11
:103E50000000F03F012201F0EABD00F0A7BD002202
:103E600013461046114600F05DBE40F201320020BC
:103E70004FF0E04101F0DBBD024A0020110701F0E4
:103E8000D6BD000001FDFFFF00B5244B21F000422C
:103E900087B09A42DCBF0022134629DD204B9A42AC
:103EA00008D140B94FF00100FFF76EFCFFF7D7FFD4
:103EB00007B000BD03DBFFF7CDFF07B000BD02AACE
:103EC000FFF7B2FC10F0030104BF0DF1080C9CE8F1
:103ED0000F000DD0012001290ED0022914D00DF1C0
:103EE000080C00909CE80F00FFF736FF07B000BDFC
:103EF000FFF75EFE07B000BD0DF1080C00909CE8D6
:103F00000F00FFF729FF05E00DF1080C9CE80F00FA
:103F1000FFF74EFE07B081F0004100BDFB21E93FF5
:103F20000000F07F2DE9F04D1D460C4698B0174675
:103F300021F0004123F00043002814BF4FF0010C92
:103F40004FF0000C0CEB440CFE4A0CEB02064FEA5F
:103F5000620C66452BD33E0018BF012606EB4506D2
:103F60001644F94A964222D3F84A53EA070C02D083
:103F7000944205D148B918B000201146BDE8F08D33
:103F8000002808BF4FF0000C01D04FF0010C0CEBE3
:103F9000440212F5001F0AD8002F14BF4FF0010C85
:103FA0004FF0000C0CEB450212F5001F07D918B0BA
:103FB0003A462B462146BDE8F04DFFF74EBF0022A2
:103FC000DFF88CA3002CB8BF534526DADFF884C392
:103FD0006345A8BF022220DADFF870C39C451CDCD1
:103FE000DFF874C30CEB235CBCF1140F08DDCCF1DB
:103FF000340627FA06FC0CFA06F6BE420DD108E09C
:104000005FB9CCF1140623FA06FC0CFA06F69E42C0
:1040100003D10CF00102C2F1020251EA000C19D1E5
:10402000002D17DA002C18BF022A01D0012A07D070
:104030000220FFF7A9FB18B0BDE8F04DFFF702BF63
:104040000220FFF7A1FBFFF7FDFE18B081F0004151
:10405000BDE8F08DB7F1000C6CD1534525D104F1CA
:10406000804212F5801201BF00280020B74918B025
:1040700008BFBDE8F08DB548884207DC002DA1BF20
:104080006046294618B0BDE8F08D07E0281E05DA25
:1040900080F0004118B06046BDE8F08DAF4979442A
:1040A000D1E9000118B0BDE8F08DDFF8A0C263458A
:1040B00025D1002D1FDA19B1514512D1D8B909E027
:1040C000002840F0EC82A24A214618B062F31E019B
:1040D000BDE8F08D0020214618B060F31E01BDE858
:1040E000F08D08DA18B02346BDE8F04D02460020F6
:1040F000614600F017BD18B02146BDE8F08D51456E
:1041000018DAB5F1804F0DD0A5F1005CBCF1FF5C71
:1041100010D1B4F1000C0DDB18B06146BDE8F04DD4
:1041200000F0ECBB234618B00246BDE8F04D19463E
:1041300000F0E6BE060024F0004C3BD1D9B1514559
:1041400033D1002C06DD002DA1BF0020514618B050
:10415000BDE8F08D002C01DD002D1BDB002C13DAF7
:10416000002D11DB012A4FF0000014BF78497C4973
:1041700018B0BDE8F08D022A18BF002C0AD0012A21
:1041800008D1002C06DA0AE0002CB8BF002D11DAA5
:10419000012A04D0002018B00146BDE8F08D18B007
:1041A00000204FF00041BDE8F08DA1F14050B0F18A
:1041B0007F601AD0012000EBE47050EA020421D0A5
:1041C000624C521E4FF0000B104304BF4FF0000B27
:1041D000644C654883427CDD644A654893421FDD38
:1041E000884217DB002D25DB37E0002C00DA4AB1CE
:1041F000022A0CBF01204FF0FF3018B0BDE8F04D8F
:1042000000F017BE0120FFF7BFFA18B0BDE8F04D6F
:10421000FFF725BE4D4A8A4202DC002D0ADC1CE075
:10422000814202DA002D18DA04E0484B994220DD81
:10423000002D12DD0220FFF7A7FAFFF716FE054654
:104240000E46002253465846214600F059FE18B04B
:1042500066F31E012846BDE8F08D0220FFF794FAB0
:10426000FFF70AFE0A46214618B062F31E01BDE8B8
:10427000F08D00223046614601F068F880460E4617
:104280006FF0010201F0D3FB4FF05532394B00F0D3
:104290006BFF4246334600F033FE0022364B00F0FF
:1042A00063FF82464246334604911046194600F0A9
:1042B00027FE5246049B00F023FE8A4600904FF0F2
:1042C000C0422E4B4046314600F01AFE2C4A2B4B82
:1042D00000E027E0CDE906015146009800F010FE0D
:1042E00082460191274A284B4046314600F008FE9D
:1042F0005246019B01F02AF882460B460246059180
:10430000DDE9060100F052FBDDE9062300268846C0
:10431000304601F01BF85246059B00F025FF02468F
:1043200000F07EB90020B1F5801F07DA3522304653
:10433000614601F07CFB06466FF0340000EB215033
:1043400024E00000FFFF1F00FFFF0F000000F03F10
:104350000000F07F0000404301FCFFFF1E3500001D
:104360000000F0FF0000F0BF0000E0410000F0435B
:10437000FFFFEF3F5555D53F0000E03F4715F73FA2
:10438000FE822B6544DF5DF80BAE543EA0F2FF3099
:104390000190C1F3130040F07F6141F04051029160
:1043A000FE498842D8BF002004DDFD498142C8BFD4
:1043B000012001DD0D9008E000200D900198401CC7
:1043C00001900298A0F5801002900299F548784477
:1043D0000B910D9900EBC100D0E900230F933046FB
:1043E0000A920B9900F0B2FFCDE90601DDE90A213E
:1043F00030460F9B00F0DAFA02460B460020EA49ED
:1044000000F090FB059102460B460090DDE90601A5
:1044100000F076FD1490E5488A464FF00008784495
:104420000299006812904FF0005040EA61010D9827
:104430000F9B01EB804000F5002109910A9A129828
:1044400000F084FF32460B9B00F08EFE424653463E
:1044500000F056FD0646029140465146099B129ACD
:1044600000F04EFDDDE9062300F07EFE3246029BA1
:1044700000F06CFF059B009A00F042FD0091149A39
:10448000049053461046194600F03AFD064602468F
:10449000C7480B46029106217844FFF707FCCDE997
:1044A0000510029B32461046194600F029FDDDE951
:1044B000053200F025FD0591064653464046194653
:1044C000149A00F073FA009B049A00F019FD32462A
:1044D000059B00F06BFACDE90510424653461046A5
:1044E000194600F00DFD0022B24B02910A9000F037
:1044F0005DFADDE9053200F059FA0E464246AD4B51
:10450000404600F023FF029B0A9A00F01FFFDDE9FE
:10451000053200F029FE424602910A9033461046C9
:10452000514600F0EDFCCDE906015346149A02997C
:104530000A9800F0E5FC8A4602903346424600990C
:10454000049800F0DDFC5346029A00F02FFA8246F0
:104550000B4602460591DDE9060100F027FADDE988
:10456000062300208846064600F0F0FE5246059BD2
:1045700000F0FAFD824609914FF060428E4B3046C2
:10458000414600F0BDFC049006918C4A8A4B50468F
:10459000099900F0B5FC82460291894A894B304660
:1045A000414600F0ADFC5246029B00F0FFF9864BFD
:1045B0007B440D9A03EBC203D3E9002300F0F6F924
:1045C0000E900791019800F034FC0591DDE9061387
:1045D00082460E9A049800F0E9F97C4A7A440D9BD1
:1045E00002EBC303D3E900230093029200F0DEF94B
:1045F0005246059B00F0DAF90026884652463046BE
:10460000059B00F0A3FE009B029A00F09FFE069B14
:10461000049A00F09BFE079B0E9A00F0A5FD02464F
:1046200000200B4602903846294600F069FC82467D
:1046300001912B4638461946029A00F087FE324611
:10464000434600F05DFC5246019B00F0AFF907467F
:104650008A46324643462946029800F051FC0546F8
:104660000E463A46534600F0A1F9594A884691420F
:1046700021DBA8EB020353EA000210D12A4633469D
:1046800000F064FECDE90401524A534B38465146CE
:1046900000F08CF9DDE9042300F030FD21D2022086
:1046A000FFF772F8FFF7E1FB0A46214618B062F304
:1046B0001E01BDE8F08D494B28F000429A4210D30C
:1046C000474A08EB020353EA00027FF4C6AD2A46CC
:1046D000334600F03BFE3A46534600F00FFD7FF6AE
:1046E000BCAD0022019228F000403E493E4A01EB59
:1046F0002051824223DA481C4FF4801121FA00F045
:1047000040443A4AC0F30A517A44394BA1F2FF318E
:10471000CB4020EA0303C0F3130040F48010C1F142
:104720001401C84012680190B8F1000FBCBF4042AC
:1047300001902846314600F009FE05460E462A46FD
:1047400033463846514600F031F94FF000084246F2
:10475000284B4046059100F0D3FBCDE90601264ADF
:10476000264B4046059900F0CBFB009102902A466B
:1047700033464046059900F0E9FD3A46534600F0BD
:10478000F3FC1F4A1F4B00F0BBFB009B029A00F09A
:104790000DF90746884602460B4635E08E98030021
:1047A0007AB60B00363100000000F03F9E31000069
:1047B0009C3000000000084009C7EE3FFD033ADCD2
:1047C000F5015B14E02F3EBE742F0000382F00006F
:1047D00000009040FE822B654715973C00CC90402E
:1047E00000346F3F01FCFFFF0000E03FB42E0000EB
:1047F000FFFF0F00432EE63F396CA80C615C20BE22
:10480000EF39FAFE422EE63FDDE9060100F0CEF870
:10481000DDE9062305460E4600F098FD3A4643467C
:1048200000F0A2FC0F462A46334600901046194677
:1048300000F066FB824602462E4888460B4605215C
:104840007844FFF733FA5246434600F059FB2A46B4
:10485000334600F089FC80468A463B46284631466E
:10486000009A00F04DFB3B46009A00F09FF806913D
:10487000009000224FF080434046514600F066FD14
:104880000F460C90424653462846314600F038FB0E
:104890003B460C9A00F046F9069B009A00F056FD44
:1048A0002A46334600F052FD0022134B00F05CFC18
:1048B000054601980E4601EB00510815002810DC52
:1048C00028463146019A01F0B2F8FEF799FF042814
:1048D00008BFFFF7D1FA28463146019A01F0A7F840
:1048E00005460B4618B02A4658462146BDE8F04D0D
:1048F00000F006BB242D00000000F03F2DE9F04140
:1049000006460F4600F03CFC041E0D4618BF012071
:10491000284320F00040C0F17F6000F1E040C00F6C
:104920000ED0301C18BF0120384320F00040C0F1E9
:104930007F6000F1E040C00F04BF0120FEF724FFBC
:1049400020462946BDE8F08121F00042A2F16052E4
:10495000B2F5801F01F0004328BFD2F17F6C0BD964
:104960005FEA001C43EAC20242EB507018BF704776
:1049700028BF20F001007047B2F5801FBCBF184669
:1049800070474FEA410C1CF5001F02D2084600F0A8
:1049900070BF70B500F05EFB00000089FFF7F6BF46
:1049A0004FF00040A0F580007047000010B591EA7C
:1049B000030F48BF83F0004300F1D084841A71EBE9
:1049C000030C05D2121943EB0C03001B61EB0C0125
:1049D000DFF824E14FEA1154A4EB135C1EEA430F05
:1049E00018BF9EEA445F73D023EA0E03DCF1200E69
:1049F00021EA045143F4801332D322FA0CFE10EB67
:104A00000E0023FA0CFE41EB0E01CCF1200E03FA4E
:104A10000EFE10EB0E0051F10001B1F5801FCCF13C
:104A2000200E32D201EB045112FA0EF2BDE8104012
:104A300058BF7047401C38BF5FEA420218BF70473A
:104A4000002814BF20F0010041F100014FEA4103AA
:104A500013F5001F38BF7047A1F1C04100F048BBFB
:104A6000012A43EB0302ACF1200CDCF11F0E32BF34
:104A70004FF0000E23FA0CF310EB030041EB04514E
:104A8000B4EB115FD0D0A1EB045101F580114908BE
:104A90005FEA300001EB04510ED350F1000038BF43
:104AA00012FA0EFE08D1BDE81040C9E7401C38BF1D
:104AB0005FEA4202CAD1C3E7BDE810404FEA4103B2
:104AC00013F5001F38BF7047A1F1C04100F010BBC3
:104AD0009EEA445F08D011EA5E0FBDE8104004BFB3
:104AE00001F0004100207047BDE8104070B500F0B3
:104AF000B1FA00BF64FBBE3E0000E0FF02494FF088
:104B0000000000F062BF00BF0000F87F491058BFEE
:104B1000C1F140415B1058BFC3F140438B42EFF3FA
:104B2000008070472DE9C04130B4DFF8A0C23CEAF4
:104B3000111418BF3CEA131400F0EC8081EA03055D
:104B40001CEA111444EAD57418BF1CEA131500F0CE
:104B5000C780A4EB05044FF0004545EAC12145EAB2
:104B6000C32341EA505143EA525304F17F749942FE
:104B700004F500344FEAC0204FEAC22208BF904239
:104B800000F09C804FEA13650FF24016765D4FEA05
:104B9000134506FB05F7C7F1807706FB07F74FEAD9
:104BA000D737A7FB03687642C8F58038A7FB06CE47
:104BB00038BFA8F1010807FB08E64FF0000EA6FB7E
:104BC000028CE6FB03CEDCF1000CCEF1004E38BFC8
:104BD000AEF1010EA6FB0C584FF000074FF0000598
:104BE000E6FB0E87A1FB08C6A0FB07CE16EB0E0660
:104BF00045F10005E1FB076515F1E04E7EBFA4F528
:104C000080345FEA46066D4116F1800745F10005E4
:104C10004FEA17274FEA066647EA0567A6F1DE4620
:104C2000B6F1805F4FEA15251FD9384624F0010CF4
:104C300005EBC471BCF1FE6F01EB0C1102D8F0BCA6
:104C4000BDE8008124425CBF01F5801E9EEAC47F5E
:104C500002D4F0BCBDE80081244238D4F0BCA1F1FC
:104C6000C041BDE8004100F043BA4FEAD22242EA17
:104C700043524FEAD323A7FB02864FEAD02040EAF3
:104C8000415007FB03661EEA0E0F4FEAD12105FBD8
:104C9000026658BFA6EB0056B6EB00564FEA520E1E
:104CA0004EEAC37E18EB0E0E56EB530EBDD518EB35
:104CB00002085E417F1C55F10005B6E74FF48015F0
:104CC0004FF000074FF000064FF00008ADE7F0BCD2
:104CD0004FF0000001F1C04101F00041BDE800814A
:104CE00011EA0C1F0CEA131500D00CE013EA0C1F9C
:104CF00000F025804FF00000F0BC81EA030101F0D4
:104D00000041BDE80081F0BCBDE8004181EA03013B
:104D100000F0EEB9F0BCBDE8004170B500F09AF9C2
:104D2000097EFC3E00F007B881EA03014FF0000065
:104D300001F00041704781EA030100F0D9B9F0BCED
:104D4000BDE800414FF0000021497047FFFDFBF92D
:104D5000F7F5F4F2F0EEEDEBE9E8E6E4E3E1E0DEAE
:104D6000DDDBDAD8D7D5D4D3D1D0CFCDCCCBCAC820
:104D7000C7C6C5C4C2C1C0BFBEBDBCBBBAB9B8B747
:104D8000B6B5B4B3B2B1B0AFAEADACABAAA9A8A83A
:104D9000A7A6A5A4A3A3A2A1A09F9F9E9D9C9C9B08
:104DA0009A999998979796959594939392919190B3
:104DB0008F8F8E8E8D8C8C8B8B8A89898888878744
:104DC0008685858484838382828181800000FF07B9
:104DD0000000F87F4FEA41034FEA5353A3F5806385
:104DE000D3F11E03C8BFD3F1210C0CDD4FF00042FC
:104DF00042EAC12242EA505232FA03FC8CEAE17CD8
:104E0000ACEBE1707047102BC4BF0020704703F576
:104E1000787CBCF1FF3F04D06FF0004282EA2100B1
:104E2000704770B500F016F9499224800020704751
:104E3000F2E710F0004248BF4042B0FA80F310FAA7
:104E400003F10AD0C3F11D0303F580634FEA41501B
:104E500002EB035202EBD12170474FF00000704784
:104E6000B0FA80F310FA03F10AD0C3F11D0303F581
:104E700080634FEA41504FEA035202EBD121704761
:104E80004FF000007047000051EA030C17D41CF5E6
:104E9000801F58BFBCF5801F00F10680994218BFE3
:104EA000704708BF9042704707D711F5801F58BF61
:104EB00013F5801F19D499427047894270471CF539
:104EC000801F08D5BCF5801FF7D58B4218BF7047EF
:104ED00008BF824270474FF4001C1CEB410F38BFE3
:104EE0001CEB430F01D28B42704770B500F0B2F853
:104EF000922449004FF000514FF08053FFF706BE57
:104F0000DFF848C170B51CEA111E1EBF1CEA13155C
:104F10009EEA0C0F95EA0C0F00F06F8081EA030403
:104F200023EA4C134EEAD47E21EA4C1141F480115D
:104F300043F48013AE44A1FB024CA0FB0365AEF129
:104F40007F7E361955EB0C05A1FB034C4CF1000399
:104F5000A0FB021C16EB0C06654153F1000309424D
:104F600018BF46F0010613F4007F0BD14FEA03315E
:104F70004FEA0530340341EA155140EA16506FF00C
:104F800003020AE04FEAC3214FEAC520F40241EAD6
:104F9000555140EA56506FF0020202EB2E4201EBEF
:104FA000025585EACE710AD05FEA440C18BF24F09E
:104FB000004450F1000041F1000120EAD47040F2B9
:104FC000FE7C624500D270BDA84214BF4FF0804401
:104FD0004FF04044002E08BF0024BEF1806FA8BFF0
:104FE000A1F1C041BDE8704080F282804FF0000026
:104FF00001F1C04101F0004170479EEA0C0F0CEA3C
:10500000131518BF95EA0C0F06D04FF0000081EA87
:10501000030E0EF0004170BD00F01CF88900013E47
:1050200000F007B800F009B84FEA430C5FEA5C5C97
:1050300008D081EA030100F05BB84FEA410C5FEA57
:105040005C5CF6D14FF00000014970470000FF079B
:105050000000F87F0EF1020E2EF0030E5EF8046BD6
:10506000364205D4012A43EB030515F5001F12D87B
:10507000012841EB010C1CF5001F0CD80ED14FEAA2
:10508000D17C15F5001F0CEB4C0C0CF1020C08BF89
:105090004CEBD37C04E04FF0080C01E04FEAD37CEA
:1050A0000CEB4C0526FA05F606F00706B6F1040CE3
:1050B00006D20EEB860CBDE870404CF0010C604748
:1050C000DFE80CF0090B02024FF000414FF0000046
:1050D000A1F5002170BD19461046012851EB0104CD
:1050E00018BFD4F5001484BF002001F0004170BD4A
:1050F0000808A0F500114FEA3101704753EA010C8E
:1051000017D41CF5801F58BFBCF5801F00F1068026
:105110008B4218BF704708BF8242704707D713F50C
:10512000801F58BF11F5801F19D48B4270479B42D6
:1051300070471CF5801F08D5BCF5801FF7D5994234
:1051400018BF704708BF904270474FF4001C1CEB1B
:10515000430F38BF1CEB410F01D2994270470FB487
:105160000CBC03BCFFF7C1BE91EA030F10B581F080
:1051700000413FF523AC83F0004300F0EFB800009E
:105180002DE9F04101F5801CBCF5001FC0F2C38081
:105190004FEA115C21EA0C510CF1FD0C41F4801135
:1051A0005FEA5C0C0CF5C07C01D3400049413DA492
:1051B000890241EA905187028E0E0A0CA45D04FB1D
:1051C00004F602FB06F6C6F14046A4FB0662F60DA5
:1051D00046EA422606FB06F4A4FB01235242C3F131
:1051E000404338BF5B1EA6FB02420024E6FB0324BB
:1051F000D20B42EA4446A6FB0623A1FB02E2A3FB34
:1052000007E4A4184FF0000252F10002E3FB014250
:105210006442C2F1404E38BFAEF1010EA6FB04233A
:105220004FF00002E6FB0E32A2FB03464FF00004F3
:10523000B61954F10004E2FB0264A1FB06E6A4FBEC
:1052400007E816EB08064FF0000858F10008E4FBE9
:1052500001687642C8F1405838BFA8F10108A2FBA6
:1052600006E4A3FB08E52D194FF0000454F10004F7
:10527000E2FB0854A1FB05E6A7FB04E818EB0608CF
:105280004FF0000656F10006E1FB048618F12005F8
:1052900056F10006A809A8F11B08B10908F03F085B
:1052A000B8F10A0F40EA86601CD901EB0C51BDE849
:1052B000F08100BFFCF5EEE8E2DDD8D3CFCBC7C369
:1052C000C0BDB9B6B4B1AEACA9A7A5A3A19F9D9B23
:1052D0009A9896959392908F8D8C8B8988878685E6
:1052E00084838281A0FB006800FB01F208EB420886
:1052F000B8EB872807D5341858EB0104D5D5401CE6
:1053000051F10001D1E7341A78EB0104CDD4401EED
:1053100071F10001C9E75FEA4C0C5FEA9C5C0DD1BA
:1053200005D34FF0000001F00041BDE8F081BDE879
:10533000F04170B5FFF78EFE6DDBFFBEBDE8F041BA
:105340004FF00000004970470000F87F10B591EA67
:10535000030F48BF83F000433FF530AB841A71EB75
:10536000030C07D212198CF0004C43EB0C03001B0A
:1053700061EB0C01DFF8A4E14FEA1154A4EB135CDC
:105380001EEA430F18BF9EEA445F00F0B08023EA94
:105390006E03524221EA0451C3EB6E0338BF5B1E19
:1053A000DCF1200E25D322FA0CFE10EB0E0043FA9E
:1053B0000CFE41EB0E01CCF1200E03FA0EFE10EBB9
:1053C0000E0051F10001CCF1200E29D412FA0EF298
:1053D00001EB0451BDE8104058BF7047401C1CBF92
:1053E000B2F1004F704700280CBF491C20F00100AB
:1053F000704712EB020E43EB030218BF4FF0010E91
:105400004EEA4202ACF1200CDCF11E0E54D943FAF4
:105410000CFE10EB0E0051F1FF31CCF11E0ED5D574
:105420000EF1010E12FA0EFE404141EB010101EBBB
:10543000445C5FEA5C5C10D910EBDE7001EB045158
:1054400038BFBEF1004FBDE8104018BF70470028BC
:105450000CBF491C20F00100704730D24FEAD42C19
:1054600011F5001124F400641BD0B1FA81F20B3A5B
:10547000A41AA41ED2F12003914030FA03F3194379
:10548000904001EBCC71002C01EB0451BDE81040C1
:10549000A8BF704701F1C0414FF0000001F000418A
:1054A0007047B0FA80F310FA03F100D110BDE41A8E
:1054B000173C4805C90AE4E701EB045110BD491047
:1054C00001EB0451BDE810404FEA300002E04FF01C
:1054D000000170474A0008BF0042F8D0B2F5001F33
:1054E00028BF704701F000414FF0000070479EEA6E
:1054F000445F07D011EA5E0FBDE8104004BF0021F1
:1055000000207047BDE8104070B5FFF7A3FD00BF55
:1055100040DFF63E83F00041104670470000E0FF98
:1055200043004FEAD30C4FEA3C0C43401FBF4007F7
:105530000CF1605113F0FE4F70471CF0006F03D167
:1055400000200CF0004170470CF0004343EA50701B
:1055500010B540EACC0000F046F900BF0000009210
:105560004FEA0001FFF7C4BD4FF000414FF00000CB
:10557000A1F500217047000090EA010F48BF81F0BB
:10558000004100F1B481421A3CBF801A89184FEAE9
:10559000D0524FF07F4C1CEA410FA2EBD15318BF01
:1055A0009CEA026F00F03B804FF0004C4CEA002078
:1055B0004CEA012121FA03FC10EB0C0C1ED202F183
:1055C000FF325FEA1C2040EBC25038BF70471CF02E
:1055D0007F0F4FEA400C18BFBCF17F4F38BF7047B8
:1055E000C3F12003994008BF20F00100BCF17F4FB8
:1055F00038BF7047A0F1C04000F03BB94FEA3C0013
:10560000000A40EBC25028BF1CF0FF0F4FEA400CCD
:10561000E6D018BFBCF17F4F38BF7047EAE79CEA7D
:10562000026F05D010EA5C0F08BF00F00040704721
:1056300010B500F0D8F800BF64FBBE3E401058BF64
:10564000C0F14040491058BFC1F140418142EFF3E1
:1056500000807047B0FA80F310FA03F2C3F19D03A3
:105660000AD0D90501EB1220530638BF704700F16C
:10567000010008BF20F001007047000050EA010C53
:1056800000F113801CF5000F58BFBCF5000F01D4CA
:105690008842704707D710F5000F58BF11F5000F6B
:1056A00015D488427047894270471CF5000F04D515
:1056B000BCF5000FF7D5814270474FF0807C1CEBA2
:1056C000400F38BF1CEB410F01D28142704710B52B
:1056D00000F089F8922449004FF000504FF08051BB
:1056E000FFF7ACBF4FF47F0C1CEAD0121EBF1CEAC0
:1056F000D11392EA0C0F93EA0C0F00F0478090EA66
:10570000010F48BF42F480724FF0004C4CEA002079
:105710004CEA012102EB0302A0FB0113A2F50002F7
:10572000002918BF43F001035B0028BF4FEA330391
:1057300042EB22425FEA132C4CEBC2502EBFBCEB73
:10574000436FB2F57C0F70474FEA036CBCF1004F1A
:1057500008BF20F00100B2F57C0F38BF70470BD5B1
:1057600082F0FF0212F5803FC8BF704700F1C040D1
:10577000D8BF00F00040704700F5000C5FEA4C0C09
:1057800048BF7047B0F1C04000F073B890EA010F15
:105790000CEAD11348BF42F48072624538BF6345BA
:1057A00004D280EA010000F00040704710B500F01C
:1057B0001AF800BF8900013E00F007B800F009B8F0
:1057C0005FEA410C5FEA1C6C08D080EA010000F03F
:1057D00050B85FEA400C5FEA1C6CF6D14FF0004015
:1057E000A0F5800070470EF1020E2EF0030E5EF859
:1057F000044B244204D44FEA4102B2F17F4F11D846
:105800004FEA4003B3F17F4F0CD80ED14FEAD07C62
:10581000B2F17F4F0CEB4C0C0CF1020C08BF4CEBBF
:10582000D17C04E04FF0080C01E04FEAD17C0CEB96
:105830004C0324FA03F404F00704B4F1040C06D278
:105840000EEB840CBDE810404CF0010C6047DFE823
:105850000CF0070802024FF00040A0F5800010BDD8
:105860000846420018BFD2F1807288BF00F00040A5
:1058700010BDFF2141EAD050C005704751EA000C2D
:1058800000F113801CF5000F58BFBCF5000F01D4C8
:105890008142704707D711F5000F58BF10F5000F70
:1058A00015D481427047894270471CF5000F04D51A
:1058B000BCF5000FF7D5884270474FF0807C1CEB99
:1058C000410F38BF1CEB400F01D28842704780EA7D
:1058D000010081EA000180EA0100FFF7F8BE000044
:1058E00090EA010F48BF81F000413FF54CAE421AEB
:1058F00004D882F00042A0EB020011444FEAD052DB
:105900004FF07F4C1CEA410FA2EBD15318BF9CEA29
:10591000026F4AD04FF0004C4CEA00204CEA0121C3
:1059200021FA03FCB0EB0C0C0FD412F0FE0F36D0B2
:105930005FEA4C001DD5001240EBC25038BF7047E3
:105940001CF03F0F18BF70470BE0A2F101025FEAA5
:105950001C2040EBC25038BF70471CF07F0F18BFAF
:105960007047C3F12003994014BF401E20F001008E
:10597000704780084FEA122308BF7047B0FA80FCD6
:10598000A2EB0C02CCF1280C60FA0CF093EA122F77
:1059900004BF00EBC25070474FEAC3707047130A50
:1059A0005FEADC1008BF7047F6E79CEA026F04D09C
:1059B00010EA5C0F08BF0020704710B5FFF713FF17
:1059C00040DFF63E81F0004070470CF00F03092BDA
:1059D00008BF082000F059800A2B0BD0082B18BFF5
:1059E000704708BF1CF0400F0AD04FF000004FF086
:1059F000000170471CF0400F18BF4FF00040704787
:105A00001CF0100F08D020F0704300F07F4242EAF3
:105A1000D3014FEA4370704700F0604021F07F42AD
:105A200042EA000201F07F4040EA727070474FF096
:105A3000FF0C4CF4E06C1CEA11531CBF9CEA030CF5
:105A40009445C2BFDA4201EB02517047002B0DD0E2
:105A5000BCF1000F0FD0002A01F00041A4BF41F0BB
:105A6000E04141F07F614FF00000704701F00041DC
:105A70004FF00000704750EA01334FF09B0C18BF05
:105A80004CF0806C7FF43AA870471CF4801F11D052
:105A90001CF4E02F03D06FEACC31490070474FF07F
:105AA0004050EFF3008222F0704242EA000282F39B
:105AB000008870474FF000007047000001000000B0
:105AC000020000000300000041000000040000008C
:105AD0000500000006000000420000000700000072
